{
  "contractName": "DAppStorage",
  "abi": [
    {
      "inputs": [],
      "name": "transactionCount",
      "outputs": [
        {
          "internalType": "uint256",
          "name": "",
          "type": "uint256"
        }
      ],
      "stateMutability": "view",
      "type": "function",
      "constant": true
    },
    {
      "inputs": [
        {
          "internalType": "uint256",
          "name": "",
          "type": "uint256"
        }
      ],
      "name": "transactions",
      "outputs": [
        {
          "internalType": "uint256",
          "name": "transactionId",
          "type": "uint256"
        },
        {
          "internalType": "address",
          "name": "userAddress",
          "type": "address"
        },
        {
          "internalType": "uint256",
          "name": "itemId",
          "type": "uint256"
        },
        {
          "internalType": "uint256",
          "name": "totalPrice",
          "type": "uint256"
        }
      ],
      "stateMutability": "view",
      "type": "function",
      "constant": true
    },
    {
      "inputs": [
        {
          "internalType": "address",
          "name": "_userAddress",
          "type": "address"
        },
        {
          "internalType": "uint256",
          "name": "_itemId",
          "type": "uint256"
        },
        {
          "internalType": "uint256",
          "name": "_totalPrice",
          "type": "uint256"
        }
      ],
      "name": "addTransaction",
      "outputs": [],
      "stateMutability": "nonpayable",
      "type": "function"
    },
    {
      "inputs": [],
      "name": "getTransactionsCount",
      "outputs": [
        {
          "internalType": "uint256",
          "name": "",
          "type": "uint256"
        }
      ],
      "stateMutability": "view",
      "type": "function",
      "constant": true
    },
    {
      "inputs": [
        {
          "internalType": "uint256",
          "name": "_transactionId",
          "type": "uint256"
        }
      ],
      "name": "getTransaction",
      "outputs": [
        {
          "internalType": "uint256",
          "name": "",
          "type": "uint256"
        },
        {
          "internalType": "address",
          "name": "",
          "type": "address"
        },
        {
          "internalType": "uint256",
          "name": "",
          "type": "uint256"
        },
        {
          "internalType": "uint256",
          "name": "",
          "type": "uint256"
        }
      ],
      "stateMutability": "view",
      "type": "function",
      "constant": true
    },
    {
      "inputs": [],
      "name": "testFunction",
      "outputs": [
        {
          "internalType": "uint256",
          "name": "",
          "type": "uint256"
        }
      ],
      "stateMutability": "pure",
      "type": "function",
      "constant": true
    }
  ],
  "bytecode": "0x608060405234801561001057600080fd5b5061050b806100206000396000f3fe608060405234801561001057600080fd5b50600436106100625760003560e01c806333ea3dc814610067578063578cb8f9146100d45780639ace38c2146100f2578063b77bf6001461015f578063e16b4a9b1461017d578063efbc54691461019b575b600080fd5b6100936004803603602081101561007d57600080fd5b81019080803590602001909291905050506101f3565b604051808581526020018473ffffffffffffffffffffffffffffffffffffffff16815260200183815260200182815260200194505050505060405180910390f35b6100dc610338565b6040518082815260200191505060405180910390f35b61011e6004803603602081101561010857600080fd5b8101908080359060200190929190505050610342565b604051808581526020018473ffffffffffffffffffffffffffffffffffffffff16815260200183815260200182815260200194505050505060405180910390f35b61016761039f565b6040518082815260200191505060405180910390f35b6101856103a5565b6040518082815260200191505060405180910390f35b6101f1600480360360608110156101b157600080fd5b81019080803573ffffffffffffffffffffffffffffffffffffffff16906020019092919080359060200190929190803590602001909291905050506103af565b005b6000806000806001548510610270576040517f08c379a000000000000000000000000000000000000000000000000000000000815260040180806020018281038252601a8152602001807f5472616e73616374696f6e20646f6573206e6f7420657869737400000000000081525060200191505060405180910390fd5b610278610497565b6000868154811061028557fe5b9060005260206000209060040201604051806080016040529081600082015481526020016001820160009054906101000a900473ffffffffffffffffffffffffffffffffffffffff1673ffffffffffffffffffffffffffffffffffffffff1673ffffffffffffffffffffffffffffffffffffffff16815260200160028201548152602001600382015481525050905080600001518160200151826040015183606001519450945094509450509193509193565b6000600154905090565b6000818154811061034f57fe5b90600052602060002090600402016000915090508060000154908060010160009054906101000a900473ffffffffffffffffffffffffffffffffffffffff16908060020154908060030154905084565b60015481565b6000613039905090565b60006001549050600060405180608001604052808381526020018673ffffffffffffffffffffffffffffffffffffffff1681526020018581526020018481525090806001815401808255809150506001900390600052602060002090600402016000909190919091506000820151816000015560208201518160010160006101000a81548173ffffffffffffffffffffffffffffffffffffffff021916908373ffffffffffffffffffffffffffffffffffffffff1602179055506040820151816002015560608201518160030155505060016000815480929190600101919050555050505050565b604051806080016040528060008152602001600073ffffffffffffffffffffffffffffffffffffffff1681526020016000815260200160008152509056fea2646970667358221220ec0b16f5e1f46df4e1a0e81955a6b01f63f0d000de8565e875c7b0998fe1041864736f6c63430007030033",
  "immutableReferences": {},
  "source": "// SPDX-License-Identifier: GPL-3.0\r\npragma solidity >=0.6.0 <0.9.0;\r\n\r\ncontract DAppStorage {\r\n    struct Transaction {\r\n        uint256 transactionId;\r\n        address userAddress;\r\n        uint256 itemId;\r\n        uint256 totalPrice;\r\n    }\r\n\r\n    Transaction[] public transactions;\r\n    uint256 public transactionCount;\r\n\r\n    function addTransaction(address _userAddress, uint256 _itemId, uint256 _totalPrice) public {\r\n        uint256 newTransactionId = transactionCount;\r\n        transactions.push(Transaction(newTransactionId, _userAddress, _itemId, _totalPrice));\r\n        transactionCount++;\r\n    }\r\n\r\n    function getTransactionsCount() public view returns (uint256) {\r\n        return transactionCount;\r\n    }\r\n\r\n    function getTransaction(uint256 _transactionId) public view returns (uint256, address, uint256, uint256) {\r\n        require(_transactionId < transactionCount, \"Transaction does not exist\");\r\n        Transaction memory transaction = transactions[_transactionId];\r\n        return (transaction.transactionId, transaction.userAddress, transaction.itemId, transaction.totalPrice);\r\n    }\r\n    \r\n    function testFunction() public pure returns (uint256) {\r\n        return 12345;\r\n    }\r\n}",
  "sourcePath": "C:\\xampp\\htdocs\\Decentralized-Trading-Platform\\truffle\\contracts\\DAppStorage.sol",
  "compiler": {
    "name": "solc",
    "version": "0.7.3+commit.9bfce1f6.Emscripten.clang"
  },
  "schemaVersion": "3.4.16",
  "updatedAt": "2023-10-09T01:38:59.844Z",
  "networkType": "ethereum",
  "devdoc": {
    "kind": "dev",
    "methods": {},
    "version": 1
  },
  "userdoc": {
    "kind": "user",
    "methods": {},
    "version": 1
  }
}