{
  "contractName": "DAppStorage",
  "abi": [
    {
      "inputs": [],
      "name": "transactionCount",
      "outputs": [
        {
          "internalType": "uint256",
          "name": "",
          "type": "uint256"
        }
      ],
      "stateMutability": "view",
      "type": "function",
      "constant": true
    },
    {
      "inputs": [
        {
          "internalType": "uint256",
          "name": "",
          "type": "uint256"
        }
      ],
      "name": "transactions",
      "outputs": [
        {
          "internalType": "uint256",
          "name": "id",
          "type": "uint256"
        },
        {
          "internalType": "address",
          "name": "userAddress",
          "type": "address"
        },
        {
          "internalType": "uint256",
          "name": "dbAssetId",
          "type": "uint256"
        }
      ],
      "stateMutability": "view",
      "type": "function",
      "constant": true
    },
    {
      "inputs": [
        {
          "internalType": "address",
          "name": "_userAddress",
          "type": "address"
        },
        {
          "internalType": "uint256[]",
          "name": "_dbAssetId",
          "type": "uint256[]"
        },
        {
          "internalType": "uint256",
          "name": "_totalPrice",
          "type": "uint256"
        }
      ],
      "name": "addTransaction",
      "outputs": [],
      "stateMutability": "payable",
      "type": "function",
      "payable": true
    },
    {
      "inputs": [],
      "name": "getAllTransaction",
      "outputs": [
        {
          "internalType": "uint256[]",
          "name": "",
          "type": "uint256[]"
        }
      ],
      "stateMutability": "view",
      "type": "function",
      "constant": true
    }
  ],
  "bytecode": "0x608060405234801561001057600080fd5b50610946806100206000396000f3fe60806040526004361061003f5760003560e01c80635bb00783146100445780639ace38c214610060578063add6415d1461009f578063b77bf600146100ca575b600080fd5b61005e60048036038101906100599190610536565b6100f5565b005b34801561006c57600080fd5b506100876004803603810190610082919061059d565b6102e5565b604051610096939291906107c6565b60405180910390f35b3480156100ab57600080fd5b506100b461033c565b6040516100c19190610729565b60405180910390f35b3480156100d657600080fd5b506100df610429565b6040516100ec91906107ab565b60405180910390f35b80341015610138576040517f08c379a000000000000000000000000000000000000000000000000000000000815260040161012f9061074b565b60405180910390fd5b60005b825181101561028d5761016083828151811061015357fe5b602002602001015161042f565b156101a0576040517f08c379a00000000000000000000000000000000000000000000000000000000081526004016101979061078b565b60405180910390fd5b6000604051806060016040528060015481526020018673ffffffffffffffffffffffffffffffffffffffff1681526020018584815181106101dd57fe5b602002602001015181525090806001815401808255809150506001900390600052602060002090600302016000909190919091506000820151816000015560208201518160010160006101000a81548173ffffffffffffffffffffffffffffffffffffffff021916908373ffffffffffffffffffffffffffffffffffffffff160217905550604082015181600201555050600160008154809291906001019190505550808060010191505061013b565b50803411156102e0573373ffffffffffffffffffffffffffffffffffffffff166108fc8234039081150290604051600060405180830381858888f193505050501580156102de573d6000803e3d6000fd5b505b505050565b600081815481106102f257fe5b90600052602060002090600302016000915090508060000154908060010160009054906101000a900473ffffffffffffffffffffffffffffffffffffffff16908060020154905083565b6060600060015411610383576040517f08c379a000000000000000000000000000000000000000000000000000000000815260040161037a9061076b565b60405180910390fd5b606060015467ffffffffffffffff8111801561039e57600080fd5b506040519080825280602002602001820160405280156103cd5781602001602082028036833780820191505090505b50905060005b60015481101561042157600081815481106103ea57fe5b90600052602060002090600302016002015482828151811061040857fe5b60200260200101818152505080806001019150506103d3565b508091505090565b60015481565b600080600090505b60015481101561047e57826000828154811061044f57fe5b9060005260206000209060030201600201541415610471576001915050610484565b8080600101915050610437565b50600090505b919050565b600081359050610498816108e2565b92915050565b600082601f8301126104af57600080fd5b81356104c26104bd8261082e565b6107fd565b915081818352602084019350602081019050838560208402820111156104e757600080fd5b60005b8381101561051757816104fd8882610521565b8452602084019350602083019250506001810190506104ea565b5050505092915050565b600081359050610530816108f9565b92915050565b60008060006060848603121561054b57600080fd5b600061055986828701610489565b935050602084013567ffffffffffffffff81111561057657600080fd5b6105828682870161049e565b925050604061059386828701610521565b9150509250925092565b6000602082840312156105af57600080fd5b60006105bd84828501610521565b91505092915050565b60006105d2838361070b565b60208301905092915050565b6105e7816108a4565b82525050565b60006105f88261086a565b6106028185610882565b935061060d8361085a565b8060005b8381101561063e57815161062588826105c6565b975061063083610875565b925050600181019050610611565b5085935050505092915050565b6000610658601483610893565b91507f496e73756666696369656e74207061796d656e740000000000000000000000006000830152602082019050919050565b6000610698601a83610893565b91507f5472616e73616374696f6e20646f6573206e6f742065786973740000000000006000830152602082019050919050565b60006106d8601783610893565b91507f417373657420494420616c7265616479206578697374730000000000000000006000830152602082019050919050565b610714816108d6565b82525050565b610723816108d6565b82525050565b6000602082019050818103600083015261074381846105ed565b905092915050565b600060208201905081810360008301526107648161064b565b9050919050565b600060208201905081810360008301526107848161068b565b9050919050565b600060208201905081810360008301526107a4816106cb565b9050919050565b60006020820190506107c0600083018461071a565b92915050565b60006060820190506107db600083018661071a565b6107e860208301856105de565b6107f5604083018461071a565b949350505050565b6000604051905081810181811067ffffffffffffffff82111715610824576108236108e0565b5b8060405250919050565b600067ffffffffffffffff821115610849576108486108e0565b5b602082029050602081019050919050565b6000819050602082019050919050565b600081519050919050565b6000602082019050919050565b600082825260208201905092915050565b600082825260208201905092915050565b60006108af826108b6565b9050919050565b600073ffffffffffffffffffffffffffffffffffffffff82169050919050565b6000819050919050565bfe5b6108eb816108a4565b81146108f657600080fd5b50565b610902816108d6565b811461090d57600080fd5b5056fea264697066735822122083f3cd7f9c0870bbcaadb6acb60e15d62df918af86d69a264b9a9ed7fe4d773264736f6c63430007030033",
  "immutableReferences": {},
  "source": "// SPDX-License-Identifier: GPL-3.0\r\npragma solidity >=0.6.0 <0.9.0;\r\n\r\npragma experimental ABIEncoderV2; // Enable ABIEncoderV2\r\n\r\ncontract DAppStorage {\r\n    struct Transaction {\r\n        uint256 id;\r\n        address userAddress;\r\n        uint256 dbAssetId;\r\n    }\r\n\r\n    Transaction[] public transactions;\r\n    uint256 public transactionCount;\r\n\r\n    function addTransaction(address _userAddress, uint256[] memory _dbAssetId, uint256 _totalPrice) public payable {\r\n        require(msg.value >= _totalPrice, \"Insufficient payment\");\r\n        for (uint256 i = 0; i < _dbAssetId.length; i++) {\r\n            require(!isTransactionIdUsed(_dbAssetId[i]), \"Asset ID already exists\");\r\n            transactions.push(Transaction(transactionCount, _userAddress, _dbAssetId[i]));\r\n            transactionCount++;\r\n        }\r\n        if (msg.value > _totalPrice) {\r\n            payable(msg.sender).transfer(msg.value - _totalPrice);\r\n        }\r\n    }\r\n\r\n    function getAllTransaction() public view returns (uint256[] memory) {\r\n        require(transactionCount > 0, \"Transaction does not exist\");\r\n        uint256[] memory assetArr = new uint256[](transactionCount);\r\n        for (uint256 i = 0; i < transactionCount; i++) {\r\n            assetArr[i] = transactions[i].dbAssetId;\r\n        }\r\n        return assetArr;\r\n    }\r\n\r\n    function isTransactionIdUsed(uint256 _dbAssetId) internal view returns (bool) {\r\n        for (uint256 i = 0; i < transactionCount; i++) {\r\n            if (transactions[i].dbAssetId == _dbAssetId) {\r\n                return true;\r\n            }\r\n        }\r\n        return false;\r\n    }\r\n}\r\n",
  "sourcePath": "C:\\xampp\\htdocs\\Decentralized-Trading-Platform\\truffle\\contracts\\DAppStorage.sol",
  "compiler": {
    "name": "solc",
    "version": "0.7.3+commit.9bfce1f6.Emscripten.clang"
  },
  "schemaVersion": "3.4.16",
  "updatedAt": "2023-10-13T02:52:00.815Z",
  "networkType": "ethereum",
  "devdoc": {
    "kind": "dev",
    "methods": {},
    "version": 1
  },
  "userdoc": {
    "kind": "user",
    "methods": {},
    "version": 1
  }
}